:020000040800F2
:10000000002000208D060008D9060008D906000847
:1000100000000000000000000000000000000000E0
:10002000000000000000000000000000D9060008E9
:100030000000000000000000D9060008610400086C
:10004000D9060008D9060008D9060008D906000814
:10005000D9060008D9060008D9060008D906000804
:10006000D9060008D9060008D9060008D9060008F4
:10007000D9060008D9060008D9060008D9060008E4
:10008000D9060008D906000800000000D9060008BB
:10009000D9060008D9060008D9060008D9060008C4
:1000A000D9060008D9060008D9060008D9060008B4
:1000B000D906000800000000D90600080000000072
:1000C0005FF808F180B582B000AF78600A1CFB1CB5
:1000D0001A70FB1C1B78002B06D0084B074A51698D
:1000E0007A680A435A6106E0044B044A5269796807
:1000F000C9430A405A61BD4602B080BD00100240AB
:1001000080B582B000AF78600A1CFB1C1A70FB1C23
:100110001B78002B06D0084B074AD1697A680A433E
:10012000DA6106E0044B044AD2697968C9430A409F
:10013000DA61BD4602B080BD00100240B0B582B0A9
:1001400000AF021C3960FB1D1A70FB1D1B787F2B52
:1001500032D93049FB1D1B781A1C0F231340083B72
:1001600098082C4AFB1D1B781C1C0F232340083BBE
:100170009B0806339B00D3185B68FA1D1278141C89
:1001800003222240D200FF24251C95402A1CD24382
:100190001A403B689C01FF231C40FB1D1B781D1C63
:1001A00003232B40DB00251C9D402B1C1A43831D81
:1001B0009B00CB185A6029E0174BFA1D127852B2F7
:1001C00092081549F81D007840B28008C0308000C0
:1001D0004158F81D0078041C03202040C000FF2473
:1001E000251C8540281CC043084039688C01FF212C
:1001F0000C40F91D09780D1C03212940C900251C5C
:100200008D40291C0143C0329200D150BD4602B03E
:10021000B0BDC04600ED00E000E100E080B582B076
:1002200000AF78607A680E4B9A4201D9012312E040
:100230000C4B7A681202120A013A5A6001235B429F
:10024000181C0321FFF77AFF064B00229A60054B2A
:1002500007221A600023181CBD4602B080BDC046AC
:10026000FFFFFF0010E000E080B584B002AF0A1C81
:10027000FB1D011C1970BB1D1A70C0462C4A80233F
:100280001B02101C191C00F0F9FA031C012BF5D0FD
:10029000274A80235B04802189010091101C3C21A6
:1002A000012200F0A1FAC046214B181C022100F0E7
:1002B000E5FA031C002BF7D01D4AFB1D1B78101C10
:1002C000191C00F0C1FAC046194B181C802100F01F
:1002D000D5FA031C002BF7D0154A80239B0400217C
:1002E0000091101C3C21012200F07EFAC046104B08
:1002F000181C022100F0C2FA031C002BF7D00C4A94
:10030000BB1D1B78101C191C00F09EFAC046084B40
:10031000181C202100F0B2FA031C002BF7D0044B6C
:10032000181C202100F0D0FABD4602B080BDC046A6
:100330000058004090B587B002AF3960FB1D011C2A
:100340001970BB1D1A703B1C0E3300221A70C04678
:10035000424A80231B02101C191C00F08FFA031C58
:10036000012BF5D03D4B802292010092181C3C21BC
:100370000122002300F038FAC046384B181C022135
:1003800000F07CFA031C002BF7D0FB1D1B78334ACE
:10039000101C191C00F058FAC046304B181C4021A4
:1003A00000F06CFA031C002BF7D02C49BB1D1A7807
:1003B00080239B04902080010090081C3C2100F0C9
:1003C00013FA3B1C0F3300221A702AE0C046234B5D
:1003D000181C042100F052FA031C002BF7D0BB1D9F
:1003E0001B78012B0DD93B1C0F331B785BB23A688D
:1003F000D4181A4B181C00F035FA031CDBB223701A
:1004000008E0164B181C00F02DFA031C1A1C3B1CAC
:100410000E331A703B1C0F331A783B1C0F3301321A
:100420001A703B1C0F3300229A56BB1D1B789A4250
:10043000CCDBC046094B181C202100F01FFA031C1E
:10044000002BF7D0054B181C202100F03DFA3B1C77
:100450000E331B78181CBD4605B090BD00580040F7
:1004600080B500AF034B1B685A1C024B1A60BD4697
:1004700080BDC0461400002080B584B000AF786015
:10048000074B1B68FB6000E0C046054B1A68FB6821
:10049000D21A7B689A42F7D3BD4604B080BDC046ED
:1004A0001400002080B588B000AF724B1B68181C88
:1004B000FA23990000F0B4FB031C181CFFF7AEFEF2
:1004C0008023DB02181C0121FFF7FCFD8023DB03E6
:1004D000181C0121FFF714FE674BC02212011A609D
:1004E000654B02221A71644B01229A71624B002201
:1004F0005A71624A604B101C191C00F0A7FA5F4B3E
:10050000181C0B21012200F03DFB5C4B181C0A213A
:10051000012200F037FB5A4B00225A61584B00224F
:100520005A60574B00229A60554B0022DA60544BB8
:10053000AB221A61524B534A1A60514B00229A6106
:10054000514A4F4B101C191C00F0C8F84E4B181C98
:10055000012100F02BF93B1C1F3303221A703B1CB6
:100560001E3306221A703B1C1D3300221A703B1CDE
:100570001C3304221A703B1C1B3300221A703B1CD4
:100580001A3300221A703B1C1F331B785B01DAB24E
:100590003B1C1E331B78DB00DBB21343DAB23B1C7F
:1005A0001D331B781343DBB2DBB20020191CFFF7AD
:1005B0005BFE3B1C1C331B785B01DBB20120191C6A
:1005C000FFF752FE3B1C1B331B78DB01DAB23B1CEE
:1005D0001A331B781343DBB2DBB20220191CFFF77E
:1005E00043FE0A20FFF748FF3B1D00221A703B1D07
:1005F00000225A703B1D00229A703B1D0022DA70C7
:100600003B1D00221A713B1D00225A7100237B61A1
:1006100000233B610023FB60C0460920002101222A
:10062000FFF788FE031C1A1C01231340F5D03B1D65
:100630000320191C0622FFF77DFE3B1D1B785BB2D1
:100640001A023B1D5B785BB213437B613B1D9B78B9
:100650005BB21A023B1DDB785BB21343FB603B1DB0
:100660001B795BB21A023B1D5B795BB213433B61A2
:10067000C046D1E700000020180000200004004818
:1006800020000020895E8010005800400C488546FC
:10069000002103E00B4B5B58435004310A480B4BDD
:1006A00042189A42F6D30A4A02E000231360043249
:1006B000084B9A42F9D300F013F9FFF7F3FEFEE777
:1006C00000200020C00C00080000002014000020C2
:1006D000140000203C000020FEE7000080B584B03C
:1006E00000AF786039600023FB607B681B680122E3
:1006F000191C91430A1C7B681A607B681B68FB60AD
:10070000FA68274B1340FB603B685A683B689B685C
:100710001B021343FA681343FB607B68FA681A6094
:100720003B681A681F4B1A407B681A617B681B681C
:1007300001221A437B681A600023FB607B68FA6819
:100740009A607B68FA68DA603B689A693B681B6963
:100750001343FB607B68FA689A607B689B68802221
:1007600012021A437B689A603B68DB68FB607B6817
:100770001A68FB681A437B681A607B685B68FB60D9
:10078000FA68094B1340FB603B685B69FA681343E6
:10079000FB607B68FA685A60BD4604B080BDC04605
:1007A000FFE0CF00FFFFFFF0FF7FFF0780B582B0C3
:1007B00000AF78600A1CFB1C1A70FB1C1B78002B16
:1007C00006D07B681B6801221A437B681A6007E029
:1007D0007B681B680122191C91430A1C7B681A6004
:1007E000BD4602B080BDC04680B586B000AFF8609F
:1007F0007B603B1C0A3319803B1C09331A700023B1
:100800007B61FB685B687B617A690E4B13407B619F
:100810003B1C0A331B889B059A0D3B1C09331B7834
:100820001904FF231B040B401A437B681A433B6ADD
:1008300013437A6913437B61FB687A695A60BD464A
:1008400006B080BD009800FC80B582B000AF786033
:100850000A1CFB1C1A70FB1C1A787B689A62BD4646
:1008600002B080BD80B582B000AF78607B685B6A03
:10087000DBB2181CBD4602B080BDC04680B584B056
:1008800000AF786039600023BB603B1C0F3300224F
:100890001A707B689B69BB60BB683A681340BB6099
:1008A000BB68002B04D03B1C0F3301221A7003E0FD
:1008B0003B1C0F3300221A703B1C0F331B78181C93
:1008C000BD4604B080BDC04680B582B000AF786040
:1008D00039607B683A68DA61BD4602B080BDC046C7
:1008E00080B500AF1B4B1B4A126801210A431A60F6
:1008F000184B184A5168184A0A405A60154B154A55
:100900001168164A0A401A60124B124A1168144ABA
:100910000A401A600F4B0F4A5168124A0A405A6047
:100920000C4B0C4AD26A0F218A43DA62094B094AFE
:10093000116B0D4A0A401A63064B064A526B01219D
:100940008A435A63034B00229A6000F00FF8BD46B9
:1009500080BDC046001002400CB8FFF8FFFFF6FE55
:10096000FFFFFBFFFFFFC0FFACFEFFFF80B582B0C3
:1009700000AF00237B6000233B60314B304A12689C
:10098000802149020A431A602D4B1A6880239B027A
:1009900013403B607B6801337B603B68002B04D1D4
:1009A0007A68A023DB019A42EED1254B1A68802396
:1009B0009B02134002D001233B6001E000233B6017
:1009C0003B68012B38D11F4B11221A601C4B1C4A6B
:1009D00052685A601A4B1A4A52685A60184B184AA1
:1009E0005168194A0A405A60154B154A52688821C5
:1009F00049030A435A60124B114A12688021490484
:100A00000A431A60C0460E4B1A6880239B041340A9
:100A1000F9D00B4B0A4A526803218A435A60084BAB
:100A2000074A526802210A435A60C046044B5A687A
:100A30000C231340082BF9D1BD4602B080BDC0463F
:100A40000010024000200240FFFFC0FF80B586B0CA
:100A500000AF7860396000237B6100233B61002395
:100A6000FB6000237B6185E07B690122101C9840BC
:100A7000031C3B613B681B683A691340FB60FA68E2
:100A80003B699A4273D13B681B79012B03D03B68C9
:100A90001B79022B38D17B689B687A69520003214D
:100AA000081C9040021CD2431A407B689A607B6805
:100AB0009A683B685B79191C7B695B00081C98404D
:100AC000031C1A437B689A607B689B889BB27A6997
:100AD00092B20121081C9040021C92B2D24392B201
:100AE00013409AB27B689A807B689B889AB23B6875
:100AF0009B79191C7B699BB2081C9840031C9BB214
:100B000013439AB27B689A807B681B687A695200AB
:100B10000321081C9040021CD2431A407B681A60D3
:100B20007B681A683B681B79191C7B695B00081C91
:100B30009840031C1A437B681A607B68DB687A69FB
:100B400092B252000321081C9040021CD2431A406A
:100B50007B68DA607B68DA683B68DB79191C7B6943
:100B60005B00081C9840031C1A437B68DA607B69B1
:100B700001337B617B690F2B00D875E7BD4606B05A
:100B800080BDC04690B585B000AF7860BB1C1980B1
:100B90007B1C1A700023FB600023BB607B1C1A784F
:100BA000BB1C198807230B409B00111C99400B1C90
:100BB000FB60BB1C1B88DB089BB21A1CBB1C1B8880
:100BC000DB089BB2191C7B6808318900CB58B91C23
:100BD00008880721014089000F20041C8C40211C3B
:100BE000C94319407B6808329200D150BB1C1B8856
:100BF000DB089BB21A1C7B6808329200D258FB6853
:100C00001343BB60BB1C1B88DB089BB21A1C7B68B0
:100C100008329200B968D150BD4605B090BDC046BB
:100C2000002934D00123002210B488422CD301249F
:100C30002407A14204D2814202D209011B01F8E734
:100C4000E400A14204D2814202D249005B00F8E7ED
:100C5000884201D3401A1A434C08A04202D3001B19
:100C60005C0822438C08A04202D3001B9C0822434C
:100C7000CC08A04202D3001BDC082243002803D08A
:100C80001B0901D00909E3E7101C10BC70470028BC
:100C900001D00020C04307B4024802A140180290CE
:100CA00003BDC046190000000029F0D003B5FFF7CE
:100CB000B9FF0EBC4243891A1847C0467047C04668
:100CC000006CDC02000000000000000001020304D0
:040CD0000607080902
:0400000508000000EF
:00000001FF
